S01800006932635F646973706C61795F746573742E737265639A
S11300000C94B0150C94CD150C94CD150C94CD1501
S11300100C94CD150C94CD150C94CD150C94CD15D4
S11300200C94CD150C94CD150C94CD150C94CD15C4
S11300300C94CD150C94CD150C94CD150C94CD15B4
S11300400C94CD150C94CD150C94CD150C94CD15A4
S11300500C94CD150A000000000000000000000010
S1130060000000000000000000000000000000008C
S1130070000000000000000000000000000000007C
S1130080000000000000000000000000000000006C
S1130090000000000000000000000000000000005C
S11300A0000000000000000000000000000000004C
S11300B0000000000000000000000000000000003C
S11300C00000000000000000040000000000000028
S11300D0000000000000FE00670000007E006000D9
S11300E0000000000000000000000000000000000C
S11300F000000000000000000000000000000000FC
S113010000000000000000000000000000000000EB
S113011000000000000000000000000000000000DB
S113012000000000000000000000000000000000CB
S113013000000000000000000000000007000000B4
S1130140000000007E00000000001E00000000000F
S11301500000000000000000000000007E0000001D
S113016000001E000000000000000000000000006D
S1130170000000000000000000000000000000007B
S1130180000000000000000000000000000000006B
S1130190000000000000000000000000000000005B
S11301A0000000000000000000000000000000004B
S11301B00B00200002000000200072000000A000DC
S11301C00F0000007C000200000023000200000079
S11301D0200002000000200072000000A0000F00B8
S11301E000007C0002000000230002000000200048
S11301F002000000000000000000000000000000F9
S113020000000000000000000000000000000000EA
S113021000000000000000000000000000000000DA
S1130220000000000A000000000000003800380050
S113023000007C0060000000E60040000000C200F6
S113024040000000FF00FF000000820041000000A9
S11302500600630000001C003E00000000001C00BB
S1130260000000000000000000000000000000008A
S1130270000000000000000000000000000000007A
S1130280000000000000000000000000000000006A
S113029000000000000000001200780000000000D0
S11302A0FC00000000008600010000000200410084
S11302B00000860021000000FC001000000078000F
S11302C0080000000000060000000000010000001B
S11302D080000000000060000000000010001E000C
S11302E0000008003F00000084006100000082005C
S11302F04000000080006100000000003F0000009A
S113030000001E00000000000000000010000000BB
S11303100000000000003C00000000007E0000001F
S1130320000061000000BC0040000000FE0040002E
S11303300000C20043000000420027000000220029
S11303401E0000001C003C000000400032000000C1
S1130350C00061000000C0006000000040006000B8
S11303600000000030000000000010000000000049
S11303700000000000000000000000000000000079
S113038003000000000000007E00000000001E00CA
S11303900000000000000000000000000000000059
S11303A00000000000000000000000000000000049
S11303B00000000000000000000000000000000039
S11303C00000000000000000000000000000000029
S11303D00000000000000000000000000000000019
S11303E00000000000000000000000000000000009
S11303F0000000000700000000000000C0001F0013
S11304000000F0007F0000001800E000000004007D
S113041000000100020000000200010000000400CE
S113042000000000000000000000000000000000C8
S113043000000000000000000000000000000000B8
S113044000000000000000000000000000000000A8
S11304500000000000000000000000000000000098
S1130460000000000000000006000100000004007D
S11304700200000002000400000001001800C00097
S11304800000F0007F000000C0001F00000000001A
S11304900000000000000000000000000000000058
S11304A00000000000000000000000000000000048
S11304B00000000000000000000000000000000038
S11304C00000000000000000000000000000000028
S11304D0000000000000000000000000090000000F
S11304E0000000000000000000006C00000000009C
S11304F06C0000000000100000000000FF0001007C
S113050000001000000000006C00000000006C00FF
S113051000000000000000000000000000000000D7
S113052000000000000000000000000000000000C7
S113053000000000000000000000000000000000B7
S113054000000000000000000000000000000000A7
S11305500B0080000000000080000000000080000C
S11305600000000080000000000080000000000087
S1130570FC001F000000800000000000800000005C
S113058000008000000000008000000000008000E7
S11305900000000000000000000000000000000057
S11305A00000000000000000000000000000000047
S11305B00000000000000000000000000000000037
S11305C000000000040000000000000000006000C3
S11305D002000000600001000000C00000000000F4
S11305E00000000000000000000000000000000007
S11305F000000000000000000000000000000000F7
S113060000000000000000000000000000000000E6
S113061000000000000000000000000000000000D6
S113062000000000000000000000000000000000C6
S113063000000000000000000600000000000000B0
S11306400000060000000000060000000000060094
S1130650000000000600000000000600000000008A
S11306600000000000000000000000000000000086
S11306700000000000000000000000000000000076
S11306800000000000000000000000000000000066
S11306900000000000000000000000000000000056
S11306A00000000000000000000000000300000043
S11306B00000000000006000000000006000000076
S11306C00000000000000000000000000000000026
S11306D00000000000000000000000000000000016
S11306E00000000000000000000000000000000006
S11306F000000000000000000000000000000000F6
S113070000000000000000000000000000000000E5
S113071000000000000000000000000000000000D5
S1130720060000006000000000001C0000008000C3
S1130730030000007000000000000E000000000034
S113074001000000000000000000000000000000A4
S11307500000000000000000000000000000000095
S11307600000000000000000000000000000000085
S11307700000000000000000000000000000000075
S11307800000000000000000000000000000000065
S1130790000000000A00000000000000E000070064
S11307A00000F8001F0000000C00300000000200F0
S11307B04000000002004000000002004000000071
S11307C00C0030000000F8001F000000E0000700EB
S11307D00000000000000000000000000000000015
S11307E00000000000000000000000000000000005
S11307F000000000000000000000000000000000F5
S113080000000000000000000800000000000000DC
S1130810000000000000040040000000040040004C
S11308200000FE007F000000FE007F0000000000CA
S11308304000000000004000000000000000000034
S113084000000000000000000000000000000000A4
S11308500000000000000000000000000000000094
S11308600000000000000000000000000000000084
S11308700000000000000000000000000A0000006A
S1130880000000001800400000000C0060000000A0
S11308900600700000000600680000000600640006
S11308A000000E0063000000FC00600000007800FF
S11308B060000000000030000000000000000000A4
S11308C00000000000000000000000000000000024
S11308D00000000000000000000000000000000014
S11308E00000000000000000000000000000000004
S11308F0090000000000000008006000000004007F
S113090060000000820040000000C20040000000BF
S1130910C60041000000BE00230000009C003F0010
S1130920000000000E0000000000000000000000B5
S113093000000000000000000000000000000000B3
S113094000000000000000000000000000000000A3
S11309500000000000000000000000000000000093
S1130960000000000A00000006000000000005006E
S1130970000080000400000060000400000010007B
S113098004000000080004000000FE007F000000D6
S1130990FE007F00000000000400000000000400CE
S11309A00000000000000000000000000000000043
S11309B00000000000000000000000000000000033
S11309C00000000000000000000000000000000023
S11309D0000000000000000009000000000000000A
S11309E00000600000003000600000003C00400097
S11309F00000760040000000660040000000E600B1
S1130A0020000000C6001300000082000F00000058
S1130A1000000000000000000000000000000000D2
S1130A2000000000000000000000000000000000C2
S1130A3000000000000000000000000000000000B2
S1130A400000000000000000000000000A00000098
S1130A500000000080000F000000E0003F000000E4
S1130A60B000300000005800400000004C0040007E
S1130A700000440040000000C20061000000820049
S1130A803F00000002000F00000000000000000012
S1130A900000000000000000000000000000000052
S1130AA00000000000000000000000000000000042
S1130AB00000000000000000000000000000000032
S1130AC00A0000000000000008000000000006000A
S1130AD000000000060000000000060040000000C6
S1130AE0060038000000060007000000E6000000D1
S1130AF000001E00000000000200000000000000D2
S1130B0000000000000000000000000000000000E1
S1130B1000000000000000000000000000000000D1
S1130B2000000000000000000000000000000000C1
S1130B30000000000A0000000000000038001C0053
S1130B4000007C003E000000E60062000000C200DD
S1130B5041000000820041000000820043000000C8
S1130B604600670000007C003E00000038001C00C6
S1130B700000000000000000000000000000000071
S1130B800000000000000000000000000000000061
S1130B900000000000000000000000000000000051
S1130BA000000000000000000A0000000000000037
S1130BB0F00040000000FC004100000086004300FB
S1130BC000000200220000000200320000000200C7
S1130BD0120000000C000E000000FC0007000000E2
S1130BE0F000010000000000000000000000000010
S1130BF000000000000000000000000000000000F1
S1130C0000000000000000000000000000000000E0
S1130C1000000000000000000000000004000000CC
S1130C200000000000000000000060006000000000
S1130C3060006000000000000000000000000000F0
S1130C4000000000000000000000000000000000A0
S1130C500000000000000000000000000000000090
S1130C600000000000000000000000000000000080
S1130C700000000000000000000000000000000070
S1130C800000000000000000000000000000000060
S1130C90040000000000000060006000020060002A
S1130CA0600001000000C00000000000000000001F
S1130CB00000000000000000000000000000000030
S1130CC00000000000000000000000000000000020
S1130CD00000000000000000000000000000000010
S1130CE00000000000000000000000000000000000
S1130CF000000000000000000000000000000000F0
S1130D00000000000B008000000000004000010013
S1130D10000040000100000020000200000020004C
S1130D200200000010000400000010000400000095
S1130D30100004000000080008000000080008007B
S1130D40000004001000000000000000000000008B
S1130D50000000000000000000000000000000008F
S1130D60000000000000000000000000000000007F
S1130D7000000000000000000C0020000200000041
S1130D8020000200000020000200000020000200F9
S1130D9000002000020000002000020000002000EB
S1130DA002000000200002000000200002000000F9
S1130DB020000200000020000200000020000200C9
S1130DC0000000000000000000000000000000001F
S1130DD0000000000000000000000000000000000F
S1130DE00000000000000000000000000B000400F0
S1130DF010000000080008000000080008000000BF
S1130E0010000400000010000400000010000400A2
S1130E10000020000200000020000200000040004A
S1130E2001000000400001000000800000000000FC
S1130E3000000000000000000000000000000000AE
S1130E40000000000000000000000000000000009E
S1130E50000000000000000000000000000000008E
S1130E600900000000000000380000000000340009
S1130E700000000002000000000002006C000000FE
S1130E80020062000000860001000000FC00000077
S1130E900000380000000000000000000000000016
S1130EA0000000000000000000000000000000003E
S1130EB0000000000000000000000000000000002E
S1130EC0000000000000000000000000000000001E
S1130ED000000000130000000000000080003F003C
S1130EE00000E000C00000001800000001000C0039
S1130EF00000020004003C00040002007F00040023
S1130F00C20043000800E100400008003100200056
S1130F1008001100200008001100780008002100DA
S1130F207E000800E3004700040072004000040053
S1130F3004002000020018001C000100E0008300EF
S1130F4000000000400000000E000000400000000F
S1130F50000060000000000078000000000046006F
S1130F6000008000030000007000020000000C007C
S1130F70020000001E0002000000F8000200000051
S1130F80E0004700000000007F000000000078003F
S1130F9000000000600000000000400000000000AD
S1130FA0000000000000000000000000000000003D
S1130FB00000000000000000000000000D0002001E
S1130FC040000000020040000000FE007F0000001E
S1130FD0FE007F000000820040000000820040000C
S1130FE000008200400000008200400000008200F7
S1130FF040000000C600410000007C0063000000C7
S113100038003F00000000001E0000000000000047
S113101000000000000000000000000000000000CC
S113102000000000000000000000000000000000BC
S11310300D00000000000000E00007000000F000C8
S11310401F00000018003800000004002000000009
S113105006006000000002004000000002004000A2
S113106000000200400000000200400000000400F4
S1131070200000001C00100000003E0008000000DA
S1131080000000000000000000000000000000005C
S1131090000000000000000000000000000000004C
S11310A0000000000E0002004000000002004000AA
S11310B00000FE007F000000FE007F000000020030
S11310C04000000002004000000002004000000058
S11310D00200400000000200400000000600600022
S11310E000000C00300000001C0018000000F80094
S11310F00F000000E00007000000000000000000F6
S113110000000000000000000000000000000000DB
S113111000000000000000000D000200400000007C
S1131120020040000000FE007F000000FE007F007F
S113113000008200400000008200400000008200A5
S113114040000000820040000000820040000000D7
S1131150E200430000000600600000000E00700082
S11311600000000008000000000000000000000073
S1131170000000000000000000000000000000006B
S11311800000000000000000000000000B0002004E
S113119040000000020040000000FE007F0000004C
S11311A0FE007F000000820040000000820040003A
S11311B00000820000000000820000000000E20045
S11311C0030000000600000000000E000000000004
S11311D0000000000000000000000000000000000B
S11311E000000000000000000000000000000000FB
S11311F000000000000000000000000000000000EB
S11312000F00000000000000C00007000000F00014
S11312101F00000018003800000004003000000027
S113122006006000000002004000000002004000D0
S11312300000020040000000820040000000840022
S1131240600000008C003F0000009E003F00000092
S1131250800000000000800000000000000000008A
S1131260000000000000000000000000000000007A
S1131270000000000F0002004000000002004000D7
S11312800000FE007F000000FE007F0000008200DE
S113129040000000820040000000800000000000C8
S11312A08000000000008000000000008200400078
S11312B00000820040000000FE007F000000FE00ED
S11312C07F00000002004000000002004000000017
S11312D0000000000000000000000000000000000A
S11312E000000000000000000600020040000000B2
S11312F0020040000000FE007F000000FE007F00AE
S11313000000020040000000020040000000000055
S113131000000000000000000000000000000000C9
S113132000000000000000000000000000000000B9
S113133000000000000000000000000000000000A9
S11313400000000000000000000000000000000099
S11313500000000000000000000000000800000081
S11313603000000000007000000002006000000077
S1131370020040000000FE003F000000FE001F00CD
S11313800000020000000000020000000000000055
S11313900000000000000000000000000000000049
S11313A00000000000000000000000000000000039
S11313B00000000000000000000000000000000029
S11313C00000000000000000000000000000000019
S11313D00F00020040000000020040000000FE0078
S11313E07F000000FE007F0000008200400000003B
S11313F0820041000000C00003000000200007003C
S1131400000010000E0000000A005C00000006004E
S11314107800000006007000000002006000000078
S11314200200400000000000400000000000000036
S113143000000000000000000000000000000000A8
S1131440000000000C000200400000000200400008
S11314500000FE007F000000FE007F00000002008C
S113146040000000020040000000000040000000B6
S11314700000400000000000400000000000600088
S113148000000000700000000000180000000000D0
S11314900000000000000000000000000000000048
S11314A00000000000000000000000000000000038
S11314B000000000000000001200020040000000D4
S11314C0020040000000FE007F0000000E0040000B
S11314D000007E0040000000F80001000000C00091
S11314E00700000000003F0000000000780000003A
S11314F00000180000000000060000008000010049
S113150000007000400000000C0040000000FE00DD
S11315107F000000FE007F00000002004000000089
S11315200200400000000000000000000F00020064
S113153040000000060040000000FE007F000000A4
S11315401C00400000003800400000007000000053
S11315500000E00000000000800001000000000026
S11315600300000000000E00000002001C00000048
S1131570020038000000FE007F00000002000000AE
S11315800000020000000000000000000000000055
S11315900000000000000000000000000000000047
S11315A00E00000000000000E00007000000F8004A
S11315B01F0000001C003800000004002000000090
S11315C00200400000000200400000000200400051
S11315D0000002004000000002004000000004007F
S11315E0200000001C0038000000F8001F0000006C
S11315F0E000070000000000000000000000000000
S113160000000000000000000000000000000000D6
S1131610000000000B000200400000000200400037
S11316200000FE007F000000FE007F0000000200BA
S1131630410000000200410000000200010000001F
S1131640020001000000860001000000FC00000010
S1131650000078000000000000000000000000000E
S11316600000000000000000000000000000000076
S11316700000000000000000000000000000000066
S113168000000000000000000E0000000000000048
S1131690E00007000000F8001F0000001C003800F4
S11316A000000400200000000200400000000200CE
S11316B0C00000000200C00000000200C0000100E1
S11316C00200400003000400200002001C00380057
S11316D00600F8001F000400E000070004000000FA
S11316E000000000000000000000000000000000F6
S11316F00000000000000000000000000E000200D6
S113170040000000020040000000FE007F000000D6
S1131710FE007F00000082004000000082004000C4
S11317200000820003000000820007000000C600E1
S11317301E0000007C00380000003800700000002B
S113174000006000000000004000000000004000B5
S11317500000000000000000000000000000000085
S11317600000000000000000000000000000000075
S11317700A0000000000000038007C0000007C002B
S113178030000000E60020000000C200400000001D
S11317908200410000008400430000000C00670048
S11317A000003E003E00000000001C00000000009D
S11317B00000000000000000000000000000000025
S11317C00000000000000000000000000000000015
S11317D00000000000000000000000000000000005
S11317E0000000000C000E000000000006000000D5
S11317F0000002000000000002004000000002009F
S113180040000000FE007F000000FE007F0000009A
S1131810020040000000020040000000020000003E
S113182000000600000000000E00000000000000A0
S113183000000000000000000000000000000000A4
S11318400000000000000000000000000000000094
S113185000000000000000000F0002000000000073
S1131860020000000000FE000F000000FE003F0028
S113187000000200300000000200600000000000D0
S11318804000000000004000000000004000000094
S113189000004000000002002000000002003000B0
S11318A00000FE000F000000020000000000020023
S11318B00000000000000000000000000000000024
S11318C00000000000000000000000000F00020003
S11318D000000000020000000000060000000000FC
S11318E01E0000000000FE0000000000C200030013
S11318F0000000001F00000000007C000000000049
S11319006000000000001C00000000000300000054
S1131910E200000000001E000000000006000000BD
S113192000000200000000000000000000000000B1
S113193000000000000000000000000000000000A3
S113194013000200000000000600000000003E003A
S113195000000000FE0001000000C2000F000000B3
S113196000007E00000000003800000002000700B4
S11319700000E600000000001E0000000000FE0061
S113198000000000E2000700000000001F0000004B
S113199000007800000000001E000000C2000300E8
S11319A000003E00000000000600000000000200ED
S11319B0000000000E000200400000000200400091
S11319C000000600600000000E00600000001E0021
S11319D05800000072000C000000E2000200000049
S11319E0C0000300000040000700000022004E0079
S11319F000001A00780000000E00700000000600CD
S1131A006000000002004000000000000000000030
S1131A1000000000000000000000000000000000C2
S1131A2000000000000000000F00020000000000A1
S1131A300200000000000600000000000E0000008C
S1131A4000001E0000000000720040000000E200E0
S1131A504000000080007F00000000007F000000C4
S1131A60C000400000002200400000001A000000F6
S1131A700000060000000000020000000000020058
S1131A800000000000000000000000000000000052
S1131A900000000000000000000000000C00000036
S1131AA0400000001E0070000000060078000000E6
S1131AB002004C00000002004700000082004300C6
S1131AC00000E200400000007200400000001E0020
S1131AD0400000000E004000000002006000000012
S1131AE000003800000000000000000000000000BA
S1131AF000000000000000000000000000000000E2
S1131B0000000000000000000000000000000000D1
S1131B100600000000000000FF00FF000700FF00B7
S1131B20FF000700010000000400010000000400A1
S1131B30010000000400000000000000000000009C
S1131B400000000000000000000000000000000091
S1131B500000000000000000000000000000000081
S1131B600000000000000000000000000000000071
S1131B700000000000000000000000000000000061
S1131B800000000006000300000000001C0000002C
S1131B900000E0000000000000000700000000005A
S1131BA038000000000040000000000000000000B9
S1131BB00000000000000000000000000000000021
S1131BC00000000000000000000000000000000011
S1131BD00000000000000000000000000000000001
S1131BE000000000000000000000000000000000F1
S1131BF000000000000000000500010000000400D7
S1131C00010000000400010000000400FF00FF00C8
S1131C100700FF00FF0007000000000000000000B4
S1131C2000000000000000000000000000000000B0
S1131C3000000000000000000000000000000000A0
S1131C400000000000000000000000000000000090
S1131C500000000000000000000000000000000080
S1131C600000000000000000000000000A008000E6
S1131C7000000000600000000000100000000000F0
S1131C800C00000000000200000000000200000040
S1131C9000000C00000000001000000000006000C4
S1131CA000000000800000000000000000000000B0
S1131CB00000000000000000000000000000000020
S1131CC00000000000000000000000000000000010
S1131CD00000000000000000000000000000000000
S1131CE00B000000000004000000000004000000DD
S1131CF000000400000000000400000000000400D4
S1131D0000000000040000000000040000000000C7
S1131D1004000000000004000000000004000000B3
S1131D2000000400000000000000000000000000AB
S1131D30000000000000000000000000000000009F
S1131D40000000000000000000000000000000008F
S1131D500000000004000000000000000200000079
S1131D6000000600000000000C000000000000005D
S1131D70000000000000000000000000000000005F
S1131D80000000000000000000000000000000004F
S1131D90000000000000000000000000000000003F
S1131DA0000000000000000000000000000000002F
S1131DB0000000000000000000000000000000001F
S1131DC00000000000000000090000000000000006
S1131DD0C00038000000E0007C0000002000460045
S1131DE00000200042000000200021000000E0006C
S1131DF07F000000C0007F000000000040000000E1
S1131E0000000000000000000000000000000000CE
S1131E1000000000000000000000000000000000BE
S1131E2000000000000000000000000000000000AE
S1131E300000000000000000000000000900020093
S1131E4000000000FF003F000000FF007F000000D2
S1131E50400060000000200040000000200040001E
S1131E600000600020000000C0003F00000080006F
S1131E700F0000000000000000000000000000004F
S1131E80000000000000000000000000000000004E
S1131E90000000000000000000000000000000003E
S1131EA0000000000000000000000000000000002E
S1131EB0080000000000000080001F000000C000B7
S1131EC03F0000006000700000002000600000007F
S1131ED0200060000000600020000000C00010002E
S1131EE000000000000000000000000000000000EE
S1131EF000000000000000000000000000000000DE
S1131F0000000000000000000000000000000000CD
S1131F1000000000000000000000000000000000BD
S1131F20000000000A0000000000000000001F0084
S1131F300000C0003F0000006000600000002000BE
S1131F40400000002000400000004200200000008B
S1131F50FF007F000000FF007F0000000000200061
S1131F60000000000000000000000000000000006D
S1131F70000000000000000000000000000000005D
S1131F80000000000000000000000000000000004D
S1131F900000000000000000090000000000000034
S1131FA080001F000000C0003F00000060007100BE
S1131FB000002000610000002000610000006000BB
S1131FC061000000C000210000008000110000003A
S1131FD000000000000000000000000000000000FD
S1131FE000000000000000000000000000000000ED
S1131FF000000000000000000000000000000000DD
S113200000000000000000000000000009002000A3
S113201040000000200040000000FC007F000000A1
S1132020FE007F000000210040000000210040006D
S1132030000001000000000007000000000006008E
S1132040000000000000000000000000000000008C
S1132050000000000000000000000000000000007C
S1132060000000000000000000000000000000006C
S1132070000000000000000000000000000000005C
S11320800A000000000003008000B3000600C00046
S11320907700040060006C00040020006800040065
S11320A020006800040060006C000400C0006700A9
S11320B00400C000630002004000C00001000000F2
S11320C0000000000000000000000000000000000C
S11320D000000000000000000000000000000000FC
S11320E000000000000000000000000000000000EC
S11320F0000000000A00020040000000FF007F0012
S11321000000FF007F00000040004000000040008D
S1132110000000002000000000002000400000003B
S1132120E0007F000000C0007F00000000004000CD
S1132130000000000000000000000000000000009B
S1132140000000000000000000000000000000008B
S1132150000000000000000000000000000000007B
S11321600000000000000000050000000000000066
S1132170400040000000E3007F000000E3007F0017
S1132180000000004000000000000000000000000B
S1132190000000000000000000000000000000003B
S11321A0000000000000000000000000000000002B
S11321B0000000000000000000000000000000001B
S11321C0000000000000000000000000000000000B
S11321D000000000000000000000000004000000F7
S11321E000000400400000000400E300FF000300BE
S11321F0E300FF00010000000000000000000000F8
S113220000000000000000000000000000000000CA
S113221000000000000000000000000000000000BA
S113222000000000000000000000000000000000AA
S1132230000000000000000000000000000000009A
S1132240000000000000000000000000000000008A
S11322500A00020040000000FF007F000000FF00B1
S11322607F000000000042000000000007000000A2
S1132270A0000C0000006000580000002000700066
S1132280000020006000000000004000000000008A
S1132290000000000000000000000000000000003A
S11322A0000000000000000000000000000000002A
S11322B0000000000000000000000000000000001A
S11322C000000000050000000000000002004000C3
S11322D00000FF007F000000FF007F0000000000FE
S11322E040000000000000000000000000000000AA
S11322F000000000000000000000000000000000DA
S113230000000000000000000000000000000000C9
S113231000000000000000000000000000000000B9
S113232000000000000000000000000000000000A9
S11323300000000000000000100040004000000009
S1132340E0007F000000E0007F000000400040004B
S113235000004000000000002000000000002000F9
S113236040000000E0007F000000C0007F0000008B
S11323704000400000004000000000002000000079
S11323800000200040000000E0007F000000C000CA
S11323907F0000000000400000000000000000007A
S11323A00000000000000000000000000A004000DF
S11323B040000000E0007F000000E0007F0000001B
S11323C04000400000004000000000002000000029
S11323D00000200040000000E0007F000000C0007A
S11323E07F0000000000400000000000000000002A
S11323F000000000000000000000000000000000D9
S113240000000000000000000000000000000000C8
S113241000000000000000000000000000000000B8
S11324200A0000000000000000000F000000C000CF
S11324303F00000040007000000020004000000049
S1132440200040000000600040000000C0002000A8
S11324500000C0003F00000000000F00000000006A
S11324600000000000000000000000000000000068
S11324700000000000000000000000000000000058
S11324800000000000000000000000000000000048
S1132490000000000900400000000400E000FF000C
S11324A00700E000FF0007004000200004002000B7
S11324B040000000200040000000600060000000B8
S11324C0C0003F00000080000F000000000000007A
S11324D000000000000000000000000000000000F8
S11324E000000000000000000000000000000000E8
S11324F000000000000000000000000000000000D8
S113250000000000000000000A00000000000000BD
S113251000001F000000C0003F00000060006000D9
S11325200000200040000000200040000000600087
S113253020000400C000FF000700E000FF000700C7
S11325400000000004000000000000000000000083
S11325500000000000000000000000000000000077
S11325600000000000000000000000000000000067
S11325700000000000000000000000000700400010
S113258040000000E0007F000000E0007F00000049
S11325904000400000002000000000006000000037
S11325A000006000000000000000000000000000C7
S11325B00000000000000000000000000000000017
S11325C00000000000000000000000000000000007
S11325D000000000000000000000000000000000F7
S11325E000000000000000000000000000000000E7
S11325F00700000000000000C0007300000020007D
S113260027000000200046000000200046000000D3
S113261040004E000000E0003C000000000000000C
S113262000000000000000000000000000000000A6
S11326300000000000000000000000000000000096
S11326400000000000000000000000000000000086
S11326500000000000000000000000000000000076
S1132660000000000600200000000000F8003F0009
S11326700000FC007F00000020004000000020005B
S113268040000000000020000000000000000000E6
S11326900000000000000000000000000000000036
S11326A00000000000000000000000000000000026
S11326B00000000000000000000000000000000016
S11326C00000000000000000000000000000000006
S11326D000000000000000000A00200000000000CC
S11326E0E0003F000000E0007F0000000000400028
S11326F00000000040000000000040000000200036
S113270020000000E0007F000000E0007F000000E7
S11327100000200000000000000000000000000095
S113272000000000000000000000000000000000A5
S11327300000000000000000000000000000000095
S11327400000000000000000000000000A0020005B
S113275000000000600000000000E0000300000032
S1132760A0001F00000020007C00000000006000AA
S11327700000000018000000200007000000E00036
S11327800000000020000000000000000000000025
S11327900000000000000000000000000000000035
S11327A00000000000000000000000000000000025
S11327B00000000000000000000000000000000015
S11327C00F00200000000000E00000000000E00016
S11327D00700000020003F00000000007800000017
S11327E0000018000000200006000000E0000100C6
S11327F00000E0000700000020003F00000000008F
S11328007800000000001C0000002000030000000D
S1132810E0000000000020000000000000000000B4
S113282000000000000000000000000000000000A4
S1132830000000000A00200040000000600060006A
S11328400000E00050000000A000090000000000AB
S11328500700000000000F000000A0005800000066
S113286060007000000020006000000020004000B4
S11328700000000000000000000000000000000054
S11328800000000000000000000000000000000044
S11328900000000000000000000000000000000034
S11328A000000000000000000900600000000600B5
S11328B0E00000000600E0000700060020001F0002
S11328C003000000F80000000000380000002000B1
S11328D007000000E00000000000200000000000ED
S11328E000000000000000000000000000000000E4
S11328F000000000000000000000000000000000D4
S113290000000000000000000000000000000000C3
S113291000000000000000000000000009000000AA
S1132920400000006000600000002000780000000B
S113293020005C000000200046000000A0004300CE
S11329400000E000410000006000400000002000A2
S11329506000000000000000000000000000000013
S11329600000000000000000000000000000000063
S11329700000000000000000000000000000000053
S11329800000000000000000000000000000000043
S1132990080000000000000000000000000000002B
S11329A002000000000005000000FC00FD00010022
S11329B0FE00F80003000300000006000100000010
S11329C004000000000000000000000000000000FF
S11329D000000000000000000000000000000000F3
S11329E000000000000000000000000000000000E3
S11329F000000000000000000000000000000000D3
S1132A00000000000200000000000000FF00FF00C2
S1132A1007000000000000000000000000000000AB
S1132A2000000000000000000000000000000000A2
S1132A300000000000000000000000000000000092
S1132A400000000000000000000000000000000082
S1132A500000000000000000000000000000000072
S1132A600000000000000000000000000000000062
S1132A70000000000000000008000000000000004A
S1132A80000000000000010000000400030000003A
S1132A900600FE00F8000300FC00FD000100000039
S1132AA0050000000000020000000000000000001B
S1132AB00000000000000000000000000000000012
S1132AC00000000000000000000000000000000002
S1132AD000000000000000000000000000000000F2
S1132AE00000000000000000000000000B000000D7
S1132AF006000000000001000000000001000000CA
S1132B0000000100000000000200000000000200BC
S1132B1000000000020000000000040000000000AB
S1132B200400000000000400000000000300000096
S1132B300000000000000000000000000000000091
S1132B400000000000000000000000000000000081
S1132B500000000000000000000000000000000071
S1132B6011241FBECFE5D8E0DEBFCDBF10E0A0E644
S1132B70B0E0E6EBF0E302C005900D92A437B10794
S1132B80D9F724E0A4E7B0E001C01D92A637B2074C
S1132B90E1F70E9495170C9459180C94000011B891
S1132BA090E290B980937400089584EA86BF06B6D3
S1132BB007FEFDCF8091740083B984E886BF06B612
S1132BC007FEFDCF80E0089583B984E886BF06B68A
S1132BD007FEFDCF80E0089584E986BF06B604FCB5
S1132BE0FDCF08958823A4F1603490F54423C1F007
S1132BF0E62FE695E695E69590E8E99FF001112425
S1132C00E80FF11DEA58FF4F677081E090E002C0C1
S1132C10880F991F6A95E2F79081892B8083089524
S1132C20E62FE695E695E69590E8E99FF0011124F4
S1132C30E80FF11DEA58FF4F677081E090E002C091
S1132C40880F991F6A95E2F7809590818923808384
S1132C500895E6E7F0E086E794E01192E817F907B3
S1132C60E1F708952F923F924F925F926F927F9275
S1132C708F929F92AF92BF92CF92DF92EF92FF9288
S1132C800F931F93CF93DF9300D000D01F92CDB743
S1132C90DEB7422E2DB73EB73D832C8320916200D0
S1132CA030916300F901E770FF27EF2B69F45901B4
S1132CB033231CF497E0A90EB11CB594A794B594E2
S1132CC0A794B594A7940FC0590133231CF4A7E02B
S1132CD0AA0EB11CB594A794B594A794B594A794DF
S1132CE0BFEFAB1ABB0A2091640030916500A29E2D
S1132CF08001A39E100DB29E100D11242DB73EB776
S1132D00201B310B0FB6F8943EBF0FBE2DBFADB7DD
S1132D10BEB711964D0150E02091600030916100E2
S1132D20421B530BF80131964E9F90014F9F300D7B
S1132D305E9F300D1124F901EE0FFF1FEC5AFF4F77
S1132D4094919B831016110684F4F901EE0FFF1F72
S1132D50EA5AFF4FAD010A0F1B1F9491DA019D93AC
S1132D60AD013296A017B107C1F7BB81BB2309F4AB
S1132D7043C0B80FB983582EC12CD12C6A832224A6
S1132D80239433243394342428C0F701E60DF11D31
S1132D908081812331F0432D672D852D0E94F2150A
S1132DA005C0442D672D852D0E94F215103819F4A5
S1132DB06394122D01C0110F0F5F7394202F30E024
S1132DC0809162009091630028173907F4F25394BC
S1132DD0CA0CDB1C2981521679F080916200909113
S1132DE06300181619069CF77A8000E0612C11E044
S1132DF07401EC0CFD1CC9CF8B81AC81BD810FB675
S1132E00F894BEBF0FBEADBF0F900F900F900F9000
S1132E100F90DF91CF911F910F91FF90EF90DF9072
S1132E20CF90BF90AF909F908F907F906F905F9066
S1132E304F903F902F900895FF920F931F93CF933D
S1132E40DF93C82FD62FFA01F22E4081442381F05C
S1132E508F010F5F1F4F2F2D6D2F8C2F0E94321665
S1132E608C0FC1E0C80FF80141918F014111F3CFDC
S1132E70DF91CF911F910F91FF9008954F925F9230
S1132E806F927F928F929F92AF92BF92CF92DF9276
S1132E90EF92FF920F931F93CF93DF93EC014B01BB
S1132EA03A012A01481A590A6901C61AD70A560171
S1132EB0AA0CBB1C85010419150941E00E94F215F6
S1132EC0C615D7050CF57601E418F508EE0CFF1CC1
S1132ED0101611065CF00A0D1B1DC414D50414F45D
S1132EE021960AC08FEF881A980A06C00E0D1F1D7E
S1132EF021968FEF881A980A41E0682D8C2F0E9442
S1132F00F215C615D70524F3DF91CF911F910F91C8
S1132F10FF90EF90DF90CF90BF90AF909F908F90F5
S1132F207F906F905F904F9008950E94D3170E94F6
S1132F30291620E046E650E06AE083E10E941C176F
S1132F4020E04EE650E068E283E20E941C1786E728
S1132F5090E00E9422182FEF80E792E021508040F9
S1132F609040E1F700C000000E94291620E430E000
S1132F704AE050E060E070E080E090E00E943E179C
S1132F8086E790E00E942218EFCFCF93C82F0E94CB
S1132F90D51580E00E94E4158C2F0E94E4150E9450
S1132FA0EC15CF91089588E70E94CF158EEA0E9410
S1132FB0C51785ED0E94C51780E80E94C51788EAE9
S1132FC00E94C5178FE30E94C51783ED0E94C517A1
S1132FD080E00E94C51780E40E94C5178DE80E9416
S1132FE0C51784E10E94C51780E20E94C51780E0DE
S1132FF00E94C51781EA0E94C51788EC0E94C51774
S11330008AED0E94C51782E10E94C51781E80E94DB
S1133010C5178FEC0E94C51789ED0E94C51781EF73
S11330200E94C5178BED0E94C51780E40E94C51746
S113303084EA0E94C51786EA0E94C5178FEA0E9497
S1133040C5170895EF92FF920F931F93CF93DF93C9
S11330507C0181E20E94C51780E00E94C5178FE7BA
S11330600E94C51782E20E94C51780E00E94C5171E
S113307087E00E94C517E7018CEFF81A0E94D51566
S113308080E40E94E4158E01005F1F4F89910E9425
S1133090E415C017D107D1F70E94EC15E8010E150D
S11330A01F0561F7DF91CF911F910F91FF90EF9072
S10930B00895F894FFCF1F
S11330B6200014001300456D6265646F53004F4C85
S10730C64544000079
S9030000FC
